S02100004361722053696D756C6174696F6E204D4331204D61737465722E737265633B
S113000071C00000F8C0000034C1000070C10000DD
S1130010ACC1000086C000001EC20000E4C10000A4
S113002080C000007EC000007CC000007AC00000D8
S113003078C0000076C0000074C0000072C00000E8
S113004070C000006EC000006CC000006AC00000F8
S113005068C0000066C0000064C0000062C0000008
S113006060C000005EC000005CC000005AC0000018
S113007058C0000056C0000054C0000052C0000028
S113008050C000004EC000004CC000004AC0000038
S113009048C0000046C0000044C0000042C0000048
S11300A040C000003EC000003CC000003AC0000058
S11300B038C0000036C0000034C0000032C0000068
S11300C030C000002EC000002CC000002AC0000078
S11300D028C0000026C0000024C0000022C0000088
S11300E020C0000011241FBECFEFD1E2DEBFCDBF80
S11300F000E00CBF12E0A0E0B2E0ECEBF7E000E0BF
S11301000BBF02C007900D92A43EB107D9F722E0BD
S1130110A4EEB2E001C01D92A73EB207E1F754D2AB
S11301204BC36ECF10927C00EAE7F0E080818368D5
S113013080830895ECE7F0E09081907E9083908135
S11301408770982B9083EAE7F0E080818064808355
S1130150808184FFFDCFEAE7F0E0808180618083C5
S1130160809178009091790008958FB78F778FBF31
S1130170E89A5098E9E6F0E08081836080838FB745
S113018080688FBF08958FB78F778FBFE99A519892
S1130190E9E6F0E080818C6080838FB780688FBF50
S11301A008958FB78F778FBFEA9A5298E9E6F0E007
S11301B08081806380838FB780688FBF08958FB7F5
S11301C08F778FBFEB9A5398E9E6F0E08081806CDB
S11301D080838FB780688FBF08958FB78F778FBF65
S11301E0EE9A6E98EAE6F0E08081806380838FB7B0
S11301F080688FBF08951F920F920FB60F9211243B
S11302000BB60F922F933F934F935F936F937F930C
S11302108F939F93AF93BF93CF93DF93EF93FF930A
S113022080E05CD2C4EED2E0888160D280E075D2F6
S1130230888164D240E052E060E081E0A0D141E1F5
S113024052E060E083E09BD1FF91EF91DF91CF9189
S1130250BF91AF919F918F917F916F915F914F91DA
S11302603F912F910F900BBE0F900FBE0F901F90D8
S113027018951F920F920FB60F9211240BB60F927E
S11302802F933F934F935F936F937F938F939F939A
S1130290AF93BF93CF93DF93EF93FF9380E026D286
S11302A0C4EED2E088811AD280E028D2888135D287
S11302B042E252E060E081E062D141E152E060E07C
S11302C083E05DD1FF91EF91DF91CF91BF91AF9129
S11302D09F918F917F916F915F914F913F912F915A
S11302E00F900BBE0F900FBE0F901F9018951F928A
S11302F00F920FB60F9211240BB60F922F933F93C8
S11303004F935F936F937F938F939F93AF93BF9319
S1130310CF93DF93EF93FF9380E0E0D1C4EED2E07C
S11303208881E4D180E0EAD18881F7D143E352E0C7
S113033060E081E024D141E152E060E083E01FD13C
S1130340FF91EF91DF91CF91BF91AF919F918F91E9
S11303507F916F915F914F913F912F910F900BBEC1
S11303600F900FBE0F901F9018951F920F920FB60B
S11303700F9211240BB60F922F933F934F935F93D9
S11303806F937F938F939F93AF93BF93CF93DF9399
S1130390EF93FF9380E0AAD1C4EED2E088819ED18E
S11303A080E0BBD18881AAD144E452E060E081E0DE
S11303B0E6D041E152E060E083E0E1D0FF91EF91CB
S11303C0DF91CF91BF91AF919F918F917F916F9169
S11303D05F914F913F912F910F900BBE0F900FBEE5
S11303E00F901F9018951F920F920FB60F92112421
S11303F00BB60F922F933F934F935F936F937F931B
S11304008F939F93AF93BF93EF93FF9380E066D155
S113041080E06CD180E072D180E07FD145E552E08C
S113042060E081E0ACD041E152E060E083E0A7D03D
S1130430FF91EF91BF91AF919F918F917F916F91B8
S11304405F914F913F912F910F900BBE0F900FBE74
S11304500F901F9018951F920F920FB60F921124B0
S11304600BB60F928F939F93EF93FF93E5E0F1E028
S11304708FE080838FE493EC0197F1F700C00000D4
S113048010828FE493EC0197F1F700C00000FF9114
S1130490EF919F918F910F900BBE0F900FBE0F9015
S11304A01F90189540984198EFECF7E03197F1F7D9
S11304B000C00000429AEFECF7E03197F1F700C07A
S11304C0000082B98FEC97E00197F1F700C00000BB
S11304D04298EFECF7E03197F1F700C0000008957F
S11304E087B1876087B981B18FEF81B988E3DADF9B
S11304F08CE0D8DF81E0D6CF0895409A4198EFECA4
S1130500F7E03197F1F700C00000429AEFECF7E012
S11305103197F1F700C0000082B98FEC97E00197A2
S1130520F1F700C000004298EFECF7E03197F1F7E3
S113053000C000000895CF93DF93EC0188818823E5
S113054029F02196DADF89918111FCCFDF91CF91D7
S11305500895813041F028F0823041F0833049F031
S11305600AC0962F08C090E4960F05C090E1960F3C
S113057002C090E5960F892F806894CF0895CF9399
S1130580DF93EA01E6DFCE01D6DFDF91CF91089554
S1130590CF93DF93CDB7DEB760970FB6F894DEBF85
S11305A00FBECDBF4AE050E0BE016F5F7F4FC7D0A2
S11305B0CE010196C0DF60960FB6F894DEBF0FBE81
S11305C0CDBFDF91CF9108958BDFACDDB1D049E68B
S11305D052E060E080E0D3DF44E752E060E081E095
S11305E0CEDF44E852E060E082E0C9DF8FE08BB9FF
S11305F080E48EB98FEF87B9109207018AB980938E
S11306000A018093040108E011E0DD24DA94C6E0D5
S1130610D1E00F2EF8E7AF2EF02D0F2EF5E0EF2EE0
S1130620FF24F394F02D0F2EFFE0BF2EF02D0F2E9C
S1130630F0ECCF2EF02DF801D08297DDA4DDB1DDF2
S1130640BEDDCBDD80E076DD9093E6028093E502AB
S113065096958795969587958093E40268E080E067
S113066078DF8091E40290E093DF43E952E06CE0AC
S113067080E085DF888180FD06C0A8B848E952E0A3
S113068060E082E07CDF888181FD0FC0F701B082E9
S11306908FE19EE40197F1F700C0000010828FE122
S11306A09EE40197F1F700C00000888182FD06C036
S11306B0CBB848EA52E060E083E061DF888183FDE3
S11306C0BACF1BB818B84CEB52E060E082E057DFB9
S11306D040ED52E060E083E052DFADCF16BC87BD51
S11306E083E884BD83E085BD9D9A089516BC88BDCA
S11306F083E284BD83E085BD279A089516BC809368
S1130700B30083E88093B00083E08093B100E1E01C
S1130710F1E0808180648083089516BC8093B400E6
S113072083E28093B00083E08093B100249A08951B
S113073084B1876084B92B9880E58CBD08954532D7
S1130740510518F4423008F004C0FB011082CB01BB
S11307500895BB274A3031F4992322F4BDE29095E1
S113076081959F4F01C0BB27FB015527AA27880FFE
S1130770991FAA1FA41710F0A41B83955051B9F711
S1130780A05DAA3308F0A95DA193009779F7B11190
S1130790B1931192CB0100C0DC01FC01672F719170
S11307A07723E1F7329704C07C916D937083629153
S10F07B0AE17BF07C8F30895F894FFCFFC
S11307BC466F727761726420202020202020202034
S11307CC0020202020202020202020202020202039
S11307DC20004261636B2020202020202020202038
S11307EC20200052696768742020202020202020BB
S11307FC202020004C6566742020202020202020FE
S113080C202020200048616E6420427265616B20B8
S113081C2020202020202020005370656564203A7D
S113082C2020200053746F702020202020202020B2
S113083C202020004C6967687473204F46462020A2
S113084C2020006B6D2F68004C6967687473204F0F
S113085C6E202020202020004D697374204C616D83
S113086C706573204F4E2020202020004C6967684F
S113087C7473204F46462020202020202020200066
S113088C4D697374204C616D706573204F4646201E
S107089C20202000F4
S9030000FC
