:1000000071C000008EC000008CC000008AC00000DB
:1000100088C0000086C0000084C0000082C00000CC
:1000200080C000007EC000007CC000007AC00000DC
:1000300078C0000076C0000074C0000072C00000EC
:1000400070C000006EC000006CC000006AC00000FC
:1000500068C0000066C0000064C0000062C000000C
:1000600060C000005EC000005CC000005AC000001C
:1000700058C0000056C0000054C0000052C000002C
:1000800050C000004EC000004CC000004AC000003C
:1000900048C0000046C0000044C0000042C000004C
:1000A00040C000003EC000003CC000003AC000005C
:1000B00038C0000036C0000034C0000032C000006C
:1000C00030C000002EC000002CC000002AC000007C
:1000D00028C0000026C0000024C0000022C000008C
:1000E00020C0000011241FBECFEFD1E2DEBFCDBF84
:1000F00000E00CBF12E0A0E0B2E0EAEBF8E000E0C4
:100100000BBF02C007900D92A038B107D9F722E0CB
:10011000A0E8B2E001C01D92AA38B207E1F747D1CA
:10012000CAC36ECF10927C00EAE7F0E0808183685A
:1001300080830895ECE7F0E09081907E9083908139
:100140008770982B9083EAE7F0E080818064808359
:10015000808184FFFDCFEAE7F0E0808180618083C9
:100160008091780090917900089540984198EFEC43
:10017000F7E03197F1F700C00000429AEFECF7E0AA
:100180003197F1F700C0000082B98FEC97E001973A
:10019000F1F700C000004298EFECF7E03197F1F77B
:1001A00000C00000089587B1876087B981B18FEFE3
:1001B00081B988E3DADF8CE0D8DF81E0D6CF08951B
:1001C000409A4198EFECF7E03197F1F700C000005A
:1001D000429AEFECF7E03197F1F700C0000082B9E6
:1001E0008FEC97E00197F1F700C000004298EFEC28
:1001F000F7E03197F1F700C000000895CF93DF9347
:10020000EC018881882329F02196DADF8991811118
:10021000FCCFDF91CF910895813041F028F08230FA
:1002200041F0833049F00AC0962F08C090E4960F41
:1002300005C090E1960F02C090E5960F892F806867
:1002400094CF0895CF93DF93EA01E6DFCE01D6DFA6
:10025000DF91CF910895EBE0F1E090819E7F908354
:1002600090819D7F9083AFECB7E01197F1F700C0CC
:100270000000908194609083AFECB7E01197F1F7A4
:1002800000C00000809305018FEC97E00197F1F723
:1002900000C0000080818B7F8083AFECB7E01197B6
:1002A000F1F700C000000895EAE0F1E08081876086
:1002B0008083E4E0F1E080818FEF808388E3CBDF0F
:1002C0008CE0C9DF81E0C7CF0895EBE0F1E09081D9
:1002D0009160908390819D7F9083AFECB7E0119700
:1002E000F1F700C00000908194609083AFECB7E01C
:1002F0001197F1F700C00000809305018FEC97E0A3
:100300000197F1F700C0000080818B7F8083AFEC04
:10031000B7E01197F1F700C000000895CF93DF9385
:10032000EC018881882329F02196CFDF8991811102
:10033000FCCFDF91CF910895813041F028F08230D9
:1003400041F0833049F00AC0962F08C090E4960F20
:1003500005C090E1960F02C090E5960F892F806846
:100360007ACF0895CF93DF93EA01E6DFCE01D6DF9F
:10037000DF91CF910895CF93DF93CDB7DEB760972C
:100380000FB6F894DEBF0FBECDBF4AE050E0BE010D
:100390006F5F7F4F53D2CE010196C0DF60960FB6DC
:1003A000F894DEBF0FBECDBFDF91CF9108958FEFE0
:1003B0008DB91092070180930101109202011AD1A8
:1003C000F2DE72DFAFDE40E052E060E080E0CADFE4
:1003D00041E152E060E081E0C5DF08E011E0DD24AA
:1003E000DA94C6E0D1E00F2EFCE1CF2EF02DEE2402
:1003F000E394F12CF801D082888180FF06C042E2AC
:1004000052E060E080E01EDF05C041E352E060E0C2
:1004100080E018DF888181FF06C042E452E060E09E
:1004200081E010DF05C041E352E060E081E00ADFD7
:10043000888182FF06C041E552E060E082E002DF91
:1004400005C041E352E060E082E0FCDE888183FF8A
:1004500006C040E652E060E083E0F4DE05C041E320
:1004600052E060E083E0EEDE80E064DEBC0180E02C
:1004700090E0F3D020E93EE34AEF5EE354D1C1D0EF
:10048000709387026093860281E054DEBC0180E0B5
:1004900090E0E3D020E93EE34AEF5EE344D1B1D0FF
:1004A0007093850260938402809186029091870206
:1004B0008035910538F04FE652E060E083E052DF8E
:1004C000CEB806C01EB841E352E060E083E04ADFE8
:1004D00080918602909187028A30910569F0843676
:1004E000910551F080918402909185028A309105A6
:1004F00019F08436910541F5809180029091810236
:10050000019709F477CF81E0A6DE40E052E060E099
:1005100080E028DF41E152E060E081E023DF6BE032
:1005200080E00ADF809186029091870224DF6BE0F1
:1005300081E002DF80918402909185021CDFF092BD
:100540008102E092800245C01092810210928002E6
:1005500080918202909183028A30910569F08436FD
:10056000910551F080918802909189028A3091051D
:1005700019F084369105E9F481E06DDE40E052E047
:1005800060E080E0EFDE41E152E060E081E0EADE41
:100590006BE080E0D1DE8091860290918702EBDEF5
:1005A0006BE081E0C9DE8091840290918502E3DEF8
:1005B00010C06BE080E0C0DE8091860290918702DF
:1005C000DADE6BE081E0B8DE8091840290918502F2
:1005D000D2DE80918602909187029093830280936D
:1005E0008202809184029091850290938902809387
:1005F000880200CF2C982D982F982E9A80E48CBDDD
:10060000089570D088F09F5790F0B92F9927B7516F
:10061000A0F0D1F0660F771F881F991F1AF0BA95C6
:10062000C9F712C0B13081F077D0B1E0089574C03D
:10063000672F782F8827B85F39F0B93FCCF38695BC
:1006400077956795B395D9F73EF490958095709519
:1006500061957F4F8F4F9F4F0895E89409C097FB96
:100660003EF490958095709561957F4F8F4F9F4F89
:100670009923A9F0F92F96E9BB279395F6958795CD
:1006800077956795B795F111F8CFFAF4BB0F11F490
:1006900060FF1BC06F5F7F4F8F4F9F4F16C0882337
:1006A00011F096E911C0772321F09EE8872F762F6D
:1006B00005C0662371F096E8862F70E060E02AF0AE
:1006C0009A95660F771F881FDAF7880F969587959A
:1006D00097F9089557FD9058440F551F59F05F3F03
:1006E00071F04795880F97FB991F61F09F3F79F054
:1006F00087950895121613061406551FF2CF4695D6
:10070000F1DF08C0161617061806991FF1CF869557
:100710007105610508940895E894BB27662777273B
:10072000CB0197F908950BD078C069D028F06ED02E
:1007300018F0952309F05AC05FC01124EECFCADF2C
:10074000A0F3959FD1F3950F50E0551F629FF001E4
:10075000729FBB27F00DB11D639FAA27F00DB11D3D
:10076000AA1F649F6627B00DA11D661F829F2227C6
:10077000B00DA11D621F739FB00DA11D621F839F4D
:10078000A00D611D221F749F3327A00D611D231F23
:10079000849F600D211D822F762F6A2F11249F5771
:1007A00050408AF0E1F088234AF0EE0FFF1FBB1F94
:1007B000661F771F881F91505040A9F79E3F510533
:1007C00070F014C0AACF5F3FECF3983EDCF386953F
:1007D00077956795B795F795E7959F5FC1F7FE2BDE
:1007E000880F911D9695879597F9089597F99F67BA
:1007F00080E870E060E008959FEF80EC08950024A9
:100800000A941616170618060906089500240A9475
:1008100012161306140605060895092E0394000CFB
:1008200011F4882352F0BB0F40F4BF2B11F460FF8A
:1008300004C06F5F7F4F8F4F9F4F08954532510522
:1008400018F4423008F004C0FB011082CB01089577
:10085000BB274A3031F4992322F4BDE2909581956B
:100860009F4F01C0BB27FB015527AA27880F991F5F
:10087000AA1FA41710F0A41B83955051B9F7A05DCF
:10088000AA3308F0A95DA193009779F7B111B1934C
:100890001192CB0100C0DC01FC01672F719177231D
:1008A000E1F7329704C07C916D9370836291AE172B
:0A08B000BF07C8F30895F894FFCFC6
:1008BA0054656D7020696E20203A20202020204344
:1008CA000054656D70206F7574203A202020202016
:1008DA004300446F6F722069732031204F70656E38
:1008EA00002020202020202020202020202020201E
:1008FA002000446F6F722069732032204F70656E3A
:10090A0000446F6F722069732033204F70656E0048
:10091A00446F6F722069732034204F70656E0048EF
:10092A006967682054656D706572617475726500D7
:00000001FF
